:020000040000fa
:080000000002040000000000f2
:020000040000fa
:1000080038080000380800003808000038080000e8
:1000180038080000380800003808000038080000d8
:100028003808000038080000380800009402000072
:1000380038080000380800003808000038080000b8
:1000480038080000380800003808000038080000a8
:100058003808000038080000380800003808000098
:10006800380800003808000038080000b202000014
:100078003808000038080000380800003808000078
:100088003808000038080000380800003808000068
:100098003808000038080000380800003808000058
:1000a8003808000038080000380800003808000048
:1000b8003808000038080000380800003808000038
:1000c8003808000038080000380800003808000028
:1000d8003808000038080000380800003808000018
:1000e8003808000038080000380800003808000008
:1000f80038080000380800003808000038080000f8
:1001080038080000380800003808000038080000e7
:1001180038080000380800003808000038080000d7
:1001280038080000380800003808000038080000c7
:1001380038080000380800003808000038080000b7
:1001480038080000380800003808000038080000a7
:100158003808000038080000380800003808000097
:100168003808000038080000380800003808000087
:100178003808000038080000380800003808000077
:100188003808000038080000380800003808000067
:100198003808000038080000380800003808000057
:1001a8003808000038080000380800003808000047
:1001b8003808000038080000380800003808000037
:1001c8003808000038080000380800003808000027
:1001d8003808000038080000380800003808000017
:1001e8003808000038080000380800003808000007
:0801f80038080000380800007f
:020000040000fa
:1002080038080000380800003808000038080000e6
:1002180038080000380800003808000038080000d6
:100228003808000038080000380800009402000070
:1002380038080000380800003808000038080000b6
:1002480038080000380800003808000038080000a6
:100258003808000038080000380800003808000096
:10026800380800003808000038080000b202000012
:100278003808000038080000380800003808000076
:100288003808000038080000380800003808000066
:100298003808000038080000380800003808000056
:1002a8003808000038080000380800003808000046
:1002b8003808000038080000380800003808000036
:1002c8003808000038080000380800003808000026
:1002d8003808000038080000380800003808000016
:1002e8003808000038080000380800003808000006
:1002f80038080000380800003808000038080000f6
:1003080038080000380800003808000038080000e5
:1003180038080000380800003808000038080000d5
:1003280038080000380800003808000038080000c5
:1003380038080000380800003808000038080000b5
:1003480038080000380800003808000038080000a5
:100358003808000038080000380800003808000095
:100368003808000038080000380800003808000085
:100378003808000038080000380800003808000075
:100388003808000038080000380800003808000065
:100398003808000038080000380800003808000055
:1003a8003808000038080000380800003808000045
:1003b8003808000038080000380800003808000035
:1003c8003808000038080000380800003808000025
:1003d8003808000038080000380800003808000015
:1003e8003808000038080000380800003808000005
:0803f80038080000380800007d
:020000040000fa
:10040000cfa920000e7f22000e018800000000000e
:1004100000012000200288000c00070060f6210087
:100420000100200011000700000020000000e00093
:100430000200320000000200000000005a07020023
:10044000000000000040da000000fe004440a90067
:10045000c00620000000e000030032000000200081
:10046000a00188004440a800000006009101880017
:10047000800078000000eb0015003700e2804000ab
:1004800032a0b4009101ba00e280400032a0b40072
:100490009102ba00e280400032a0b4000002eb00fa
:1004a000472bde00f507b200602ce10004003a00a3
:1004b0000059eb008301e900fdff3e000400370016
:1004c0006128e100010032000082eb000400070017
:1004d0001101ba000200e000e8ff3a000000060047
:1004e0003159ba008301e9000c0032002159ba00e9
:1004f0008301e900080032000400e00003003a0034
:10050000e280400032a0b400f5ff370011d9ba00f4
:100510008301e900faff3a008100e800e180400031
:1005200032a0b40000000600801f7800841f78000d
:100530003400f80000002000a00188000000fa004c
:1005400014c0b3000440780000e8b7008460a9003c
:100550000080fa003400f9004f0278004f00780064
:1005600000400600801f7800849fbe003400f80021
:1005700000002000a00188000000fa00a5168000fd
:100580000404200004826200e00f520004003a00dc
:1005900014c0b3000440780001e8b7001100370030
:1005a000a51680000408200004826200e00f5200bb
:1005b00004003a0014c0b3000440780002e8b70019
:1005c00008003700a51680000400220004826200a3
:1005d000e00f520003003a0014c0b300044078005a
:1005e00003e8b7008660a9000080fa003400f90033
:1005f0004f02be004f007800004006000400fa00e1
:100600006022b800048fbe0009003700000000001f
:1006100000000000000000000000000000000000da
:1006200014002000050020001e0f42005e974a00c3
:10063000f44b2d00150020001e03be00840f530054
:10064000858f5b00f1ff36000080fa000000060095
:100650000400fa00008fbe000002eb00340888009e
:1006600000000000340880006123b8001e02be00b4
:10067000cc28dd004422de0004827000c42ade00a3
:10068000840f5300858f5b00f6ff39000080fa006d
:10069000000006000400fa00008fbe000002eb001c
:1006a0003408880000000000340880006123b8008e
:1006b0001e00be00460add00ca02de00850272008e
:1006c0004602dd00840f5300858f5b00f6ff390082
:1006d0000080fa00000006000000fa000002eb00b3
:1006e0000408880044422f00140888002405800074
:1006f00004c0a10004d0a10004e0a00024058800eb
:100700008460a9009460a8000403280024088800dd
:100710000080fa00000006000000fa000403280030
:10072000840888000080fa00000006000000fa003b
:100730006405800004c0a10004d0a10004e0a00072
:10074000640588008660a9009660a80061e0a800a2
:100750006200a8006260a8000080fa0000000600a5
:100760000000fa00889fbe002440800005002000a1
:100770003600200007002000860f5200878f5a00a5
:1007800054003e00046001000300370002003700ff
:10079000060037005100370015168000f40f2000c6
:1007a00004826a00141688004d003700348420004b
:1007b000144278000482fb00141688003484200060
:1007c000144278000482fb000402d1000442780045
:1007d0000440780043e8b7003484200014427800d5
:1007e000e04f520003003a0004c8b3000440780010
:1007f00043e8b7006441800075418000020020009a
:10080000135624000400be00790207000002be0057
:100810000404be0014088000050020000400be008f
:10082000d40207000002be0002002500335c240051
:100830000400be006e0207000002be000401be00fc
:100840000800be00200307000002be000403be0033
:1008500044418000554180000401be000600be00f6
:10086000060207000002be0044418800554188008e
:10087000444180005541800002002000832c240068
:100880000400be00100307000002be000400be000a
:100890009d0207000002be00040278008441880027
:1008a00050002000470f0700000278008402780003
:1008b0008407200004aab900040278004a22de005e
:1008c00004427800c443b0000440780042e8b70016
:1008d00003003700000000000100370000000000a6
:1008e0004f04be000080fa00000006000000fa007d
:1008f0002440800005002000360020000700200072
:10090000860f5200878f5a0024003e0004600100c9
:1009100003003700080037000e00370021003700c1
:10092000140020002440880011c0b3000000eb0038
:10093000f00e07001e00370024002000244088002d
:1009400004002000050a24006441880075418800e5
:10095000170037001508800004f42100848f52002e
:1009600012003600644180007541800002002000c2
:10097000030a24000400be00c00107000002be00fc
:1009800064418800754188001508800084442f0068
:1009900004824200140888000500370000000000af
:1009a00003003700000000000100370000000000d5
:1009b0000080fa00000006000000fa0024408000d9
:1009c000050020003600200007002000860f52009e
:1009d000878f5a005b003e00046001005b00370017
:1009e0000200370028003700580037000002eb00f3
:1009f0002440880044422f00140888000002eb00c5
:100a000014168800444180005541800002002000f7
:100a1000031224000400be00ab0207000002be0067
:100a20000400be00380207000002be000402780085
:100a3000e4418800e4418000840078000000eb007d
:100a4000520e070084418000f4418800f441800088
:100a500084007800200020004c0e0700e541800053
:100a6000f4418000848242005455250004824200f3
:100a70000442880004428000840078004000200086
:100a8000420e0700320037000002eb0024408800cd
:100a900044422f00140888000002eb00141688005e
:100aa00044418000554180000200200003122400d0
:100ab0000400be00840207000002be000400be0065
:100ac000110207000002be0004027800e441880021
:100ad000e4418000840078000000eb002b0e07004a
:100ae00084418000f4418800f44180008400780053
:100af00020002000250e0700e5418000f441800021
:100b000084824200a4aa2a0004824200044288008f
:100b10000442800084007800400020001b0e070083
:100b20006022b80044418800554188006022b80026
:100b300064418800754188000002eb008441880010
:100b40000300370000000000010037000000000033
:100b50000080fa00000006000000fa00881f7800fc
:100b600024408000050020003600200007002000ff
:100b7000860f5200878f5a0038003e000460010043
:100b8000030037003700370004003700300037001b
:100b90003400200024408800370037006441800082
:100ba0007541800018c0b3006011b8000400be0099
:100bb000d301070000027800e00f520001003c0062
:100bc0000044eb00e04f54002800320064418000f4
:100bd0007541800002002000030a24000400be00ca
:100be000250107000002be006441880075418800ad
:100bf0001508800084bb200004824200140888008d
:100c0000644180007541800018c0b30002002000dc
:100c1000030a24000400be00b701070000027800a8
:100c2000e00f5200010035000044eb00e04f54009b
:100c3000100032001400200024408800f40f20002f
:100c40001416880044422f00140888000a00370058
:100c50001400200024408800070037000000000036
:100c6000050037000000000003003700000000000e
:100c700001003700000000004f0478000080fa00f7
:100c8000000006000000fa0024408000050020005b
:100c90003600200007002000860f5200878f5a0080
:100ca0007f003e0004600100030037002100370090
:100cb0002000370048003700120120008000eb00c0
:100cc0006080200085020700120120008000eb00f8
:100cd000708120008102070001c8b3000000eb0012
:100ce000040e0700c4418000d5418000849fbe00ef
:100cf000a4ef2900841f7800608020007e02070096
:100d0000e687570060802000100e070001ccb3007a
:100d10000000eb00f70d070012012000b1f02900e0
:100d2000708120006602070070812000070e070016
:100d30005e003700120120008000eb006080200080
:100d400066020700120120008000eb007081200085
:100d50006202070001c8b3000000eb00e50d0700c8
:100d6000864180006441800075418000861f7800c4
:100d7000849fbe00c4f12900841f78006080200099
:100d80005d020700e887570060802000ef0d070034
:100d900001ccb3000000eb00d60d07002484200036
:100da000144278000483fb004441800055418000d8
:100db000861f7800849fbe00a4f22900841f78005b
:100dc000708120004c020700e887570070812000e6
:100dd000de0d07003500370005428000e641800047
:100de000f4418000040343005455250004024300ed
:100df000848f520018003a0001c8b3000000eb00d5
:100e0000bc0d0700e4418000841f7800a4f3290092
:100e1000841f78006080200037020700e4875700b5
:100e200060802000c90d070001ccb3000000eb007a
:100e3000b00d0700f4418000841f7800b4f429004d
:100e4000841f7800708120002b020700e487570080
:100e500070812000bd0d070005428000e641800042
:100e6000f44180000403430054552500040243006c
:100e7000848f52000c00320001c8b3000000eb0068
:100e80009c0d0700b2002000b1f529006080200011
:100e90000b02070060802000ac0d07000300370044
:100ea0000000000001003700000000000080fa0090
:100eb000000006000400fa00000f780011079800f7
:100ec0000002eb00243a880081e0a80004f02f0023
:100ed000041688000002eb001416880095168000a6
:100ee000040c22000482720094168800fafd0700a8
:100ef00009fe07000dfe0700450d0700f0fc2f005e
:100f0000a10d070040002000ae0d07000002780090
:100f10009441880094418000050020000400be0038
:100f2000140107000002be0002002400e354240064
:100f30000400be00640107000002be0002002c0095
:100f4000f34724000400be00a90007000002be0011
:100f5000a4418800b5418800a4418000b5418000cb
:100f600002002000a33f24000400be00420007004e
:100f70000002be0002002000031224000400be0094
:100f80009b0007000002be00c4418800d5418800d4
:100f9000b00c07000000eb00d10c07000002780045
:100fa000e441880020002000cd0c070000027800fa
:100fb000f441880040002000c90c070000027800be
:100fc000044288000480200014427800e04f520060
:100fd000040032000042eb000440780000e8b70053
:100fe000dffd07001480200014427800e04f52001b
:100ff00007003200800c200001002000a5fd070042
:101000000042eb000440780001e8b70037fe07001b
:101010003480200014427800e04f52000700320074
:10102000800c2000010020009afd07000042eb0028
:101030000440780003e8b7005ffe0700248020002a
:1010400014427800e04f520007003200800c20006c
:10105000010020008ffd07000042eb0004407800f3
:1010600002e8b700bcfe070006ff0700d5ff370007
:101070000040da000000fe0003f0a200889fbe00de
:101080008a9fbe008c1f7800f7000700fe00330027
:101090006450e1004f0032006420e1005200320051
:1010a00003826c0007003b000905d0000306d00056
:1010b000820f54000c065d0002003900020032006d
:1010c00089017800030678008582550004003d0000
:1010d0000003fd008103fd008502ea008b854200cc
:1010e000840f720002003b0060001000e0801800d6
:1010f0006011b8000005eb007a28e1000a00390011
:1011000006007800c75ddd00f707b2008780750034
:101110002d003700828171000a01780061056000ae
:101120008180d1000080d3008502e900f9ff3b00f7
:10113000060440008784480002003b00600414005d
:10114000e0841c000988a300070032008a81710036
:1011500082817100610164008904d1000884d30098
:101160008b05e800170037000978a30013003a0048
:101170000b00e000130034008b05e9000804440074
:1011800089844c000a4474000978a3000d003a00d9
:101190000b00e000070034008b05e9000804440060
:1011a00089844c0001003a000b0020000978a3005c
:1011b000f7ff32000001eb0002003700828171006e
:1011c0000a0178006d0007000cf0a70001f0a000f4
:1011d000b60037006420e10002003a00838f6c0003
:1011e000b60033000801be000200be00af003700a9
:1011f000889fbe008a9fbe008c1f78009a0007005f
:10120000a100330003866c006450e1002e00320020
:101210006420e100330032006150e1002f00320011
:101220006120e1003100320085855500eb07b000f8
:1012300009002000080420000500370008044400cd
:1012400089844c000a0031000603430087834b0069
:101250000001530081815b00f8ff33000203be00f0
:101260000800a0000804440089844c00f6ff3900ff
:10127000c639dd0083017300010032001300200035
:101280008904d1000884d3000998a3000500320026
:101290000800a7000300a0008904d1000884d3003f
:1012a0008b05e8008904d1000884d3000001eb001d
:1012b0000281d2003100070001f0a1000cf0a7006c
:1012c00001f0a000790037006420e1007b003200cb
:1012d0000801be000200be00f7ff37006120e100f8
:1012e000760032006000b800f3ff370000002000f5
:1012f00001f82700f0ff370014002000a600370097
:10130000f4ff2f00a40037000001be0041000700d9
:101310000470a70003f0a10003f8a30013003a0033
:101320006509b10010003200090035006928e100ac
:101330000200350001002800000005000000400008
:10134000818048008502e900fcff3a0000000600a9
:10135000f88f4200050035008100d1000080d300e5
:101360008502e800fcff3a00000006008000eb0068
:10137000000005006011b800a200370081002000c5
:10138000618055000b003d000b00200061fe2f0026
:101390000100e1001d0034008281710061016400e0
:1013a0008904d1000884d3000000e800faff3a0065
:1013b0007100200061006400030070000200600002
:1013c0000900320061044400e0844c000988a50053
:1013d000050032008b05e8006808e10002003a00d1
:1013e0008904d1000884d300f20f20000258e100e4
:1013f00005003d00c75ddd00f907b200898075007a
:1014000008007800000006000bf827008b00780029
:1014100000000500c70ade00f107b200f50fb200b8
:1014200008003200e1cf4200020032000170a0004b
:1014300024000500810f700001003200040805003f
:1014400044000500810f700002003a0014000500fe
:101450008502e9000000400081c04800fcff3b001d
:101460000170a000240005000004be00e9ff070091
:101470000003be000405be000200be00e5ff070039
:10148000844f7500000006000200be006450e100b9
:10149000050036006420e100020036000968a30060
:1014a00001003a000800be000160a0004f0678006d
:1014b0004f05be004f04be0000000600f0ff2f00e5
:1014c000f1ff2700f9ff3700889fbe008a9fbe000a
:1014d0008c1f7800e4ff0700ebff330003866c00ed
:1014e0006450e100240032006420e1002700320053
:1014f0006150e100220032006120e1002100320051
:101500008b854200eb07b1000134b800003ab80007
:101510000804420089844a00013ab8000030b8004b
:101520008880400009014a000400330000004000a8
:1015300081804800020149008b05e900c909dd00ee
:10154000830170000100320013002000c814de0087
:101550004814dd004709de001200b200c808de00b2
:101560000884700085ff070001f0a1000cf0a700bf
:1015700001f0a000cdff37006120e100cfff320075
:101580000801be000200be00f7ff37006150e10015
:10159000fcff3a00c9ff3700889fbe008a9fbe004b
:1015a000841f7800b0ff07004f007800110033005f
:1015b000f0ff2f00838f6c0006003b0004056500e0
:1015c0000a00a7000800370009f0a600100020005c
:1015d00008003700820f5400838f5c00030039003d
:1015e0001000200001003e000000200009f0a700cc
:1015f0000000ea004f05be004f04be000000e000fe
:1016000000000600889fbe008a9fbe000082700016
:101610000402710004827100260032000004be0042
:101620000200be006011b8006b0920009502200086
:101630000182cf000a0039000541b1000082cf00cd
:10164000070039000541b1000982cf0004003900cc
:101650000541b1000882cf00010039000541b10009
:1016600005425200120032000a003b0082817100e4
:10167000610164008100d1000080d3008984d3001f
:101680000884d3008b05e8000442e800f7ff3a0025
:10169000070037000804440089844c00000048001b
:1016a000818048008b05e9000442e900f9ff3a0017
:1016b00032ff07004f05be004f04be0000000600c9
:1016c0000002780002003700315a78000201e90078
:1016d000e00f5100fcff3a00000006000002780015
:1016e00002003700015a78000201e900e00f5100c2
:1016f000fcff3a00000006000c00fa00889fbe00c4
:1017000000047800f4ff2700d4bf9f008004eb00a2
:1017100099bf9f0088bf9f00a8bf9f00240c200096
:10172000b4bf9f0078815700cfb0970070805700fa
:10173000c40007000fba9700094a78000fba970053
:10174000080052004f04be000080fa0000000600ae
:101750000800fa00889fbe008a9fbe000084fb003c
:10176000d4c6b300844f5000340036004b0620002e
:10177000110009000b84d800810578007200400038
:101780004300dd00498f2000008044006022b80043
:101790000600200007fe23005001be004000be00ee
:1017a0006e0707000002be000203be0084bf9f0058
:1017b00095bf9f00a6bf9f00b7bf9f00aa00200053
:1017c000110009008a85d80080057800e985450068
:1017d000c35ddd008b8544003b02be002b03be00d1
:1017e0000fb897009fb897002fb99700bfb997001f
:1017f0005a0707000002be000203be0084bf9f001c
:1018000095bf9f00a6bf9f00b7bf9f0011000900b2
:101810000a84d800010478004344dd008884440031
:101820003902be002903be000fb897009fb8970089
:101830002fb99700bfb997001d003700ea4f50003d
:1018400013003600aa002000110009000a84d80005
:1018500001057800690440004344dd00498f200001
:10186000088444006022b8000600200007fe230020
:101870003800be002801be00380707004355dd00d0
:101880008a8444003902be002903be0008003700e4
:101890004344dd00448f2000080442006022b80069
:1018a0000600200007fe23003800be002801be000d
:1018b0002a0707004f05be004f04be000080fa0053
:1018c000000006000800fa00889fbe008a9fbe0044
:1018d000d4c6b300e04f500022003d000040ea00b3
:1018e0000004fb00844f50000a003400440620002e
:1018f000110009000404d800a9002000110009000b
:101900008900d800e9004000c308dd004a8f2000ac
:1019100020003700ea4f50000f003400a4002000e0
:10192000110009000404d800690040004300dd00f4
:10193000448f200000004200430cdd0008024200fa
:101940005403be004402be005001be004000be0071
:1019500002070700370037004344dd00448f2000b2
:10196000310037000004fb00844f50002300340096
:1019700044062000110009000404d800a90020003a
:10198000110009008900d800e9004000c308dd000b
:101990004a842000810045003102be002103be00c0
:1019a0008b0920008a8545003b00be002b01be004c
:1019b000ea0607000002be000203be0084bf9f00cb
:1019c00095bf9f00a6bf9f00b7bf9f0011000900f1
:1019d0000904d800010478004344dd0008054500ef
:1019e0003a02be002a03be000fb897009fb89700c6
:1019f0002fb99700bfb99700d5ff3700ea4f5000c5
:101a000007003400a4002000110009000404d800dd
:101a1000690040004300dd0044842000c5ff37001a
:101a20004344dd0044842000080442003800be0026
:101a30002801be004f05be004f04be000080fa0022
:101a4000000006002f04b000889fbe008a9fbe00e1
:101a50008c9fbe008e1f7800a0af9f00c1a79f0083
:101a6000b2af9f006000b8006011b800d0a79f001f
:101a7000e1a79f00f2a79f0083af9f008006eb00c5
:101a80002f043700cfa097008100e800c1a79f0076
:101a900054c2b300844f500006003a00010378009e
:101aa0000006eb0000c3b30007c2b300b1c2b3002d
:101ab000070037000000fb00afa897002c040700c8
:101ac000e10f40001e0432008d06e8001c043700c0
:101ad00006027800b6427800d2c2b30082cf52002c
:101ae0000900320005003c0087cf52000800320098
:101af00081cf52000c003a000700370080cf52001f
:101b000009003a00060037000c30a000f0ff370053
:101b10000c00a000eeff37000c10a000ecff370017
:101b20000c20a000eaff37006203660001003200cb
:101b30000c00a10068036600010032000c20a10027
:101b40000503fb000603b100e90f53000d003e0042
:101b500084027800070020006a3bb9003502fb00d0
:101b60000403b10086034200050278001503fb0060
:101b70000603b100e90f5300f7ff360097af9f004f
:101b80000a0037000003eb0096af9f00a6c2b30027
:101b900086cf520005003a00bfab9700470078009f
:101ba000b7af9f0090af9f000402e800e5c2b3000a
:101bb00094cf120017003a000ce0a000e4c25200db
:101bc000d4cf120003003200840278000700200006
:101bd000090037003fa99700c2017800b2af9f000b
:101be00083b79f000402e800c6c6b3000d003700ab
:101bf0006a38b90080034300050278003503fb0012
:101c00000603b100e90f5300f9ff360087b79f00c4
:101c1000f5ff37000cc0a0008002eb0085b79f00e5
:101c2000f1ff370084037800b7427800070278009c
:101c300086cf52002d003200c7a79f00c4c6b30054
:101c400084cf520014003c006842520084cf5200fe
:101c50002400320009003c006c42520084cf520044
:101c60002e0032006b42420084cf520071003200dd
:101c7000e0cf5200b70332008e00370064c6b300d5
:101c800084cf52001f0032006342420084cf5200d2
:101c900088003a001300370034c7b30084cf5200e5
:101ca0002200320007003c006442520084cf520000
:101cb000170032000442e80084cf52007d003a0051
:101cc0001600370054c7b30084cf52007e003200a4
:101cd0006342420084cf520076003a00a5779f000d
:101ce00010003700a5779f0079003700f0036600e9
:101cf00005012000010032000500280005067600dd
:101d0000c8ff3700a5779f000ca0a0007000370027
:101d1000a5779f000c60a0006d003700a5779f009d
:101d20000c50a0000c70a00069003700a5779f0040
:101d30003fab970046027800b6af9f0004047800de
:101d4000e00f520001003a0068a6200088027800e7
:101d50000002eb00010037000402e80065437a004e
:101d6000e04f5300fcff3a00840478008fb39700e3
:101d7000e08f530003003200898f530001003100cf
:101d8000870478000007eb001fa89700890f500018
:101d900001003600090750006806660014003a008a
:101da00007003700afa8970000022000700307006b
:101db000e10f4000010032008d06e8000e07e90047
:101dc000e00f5700f7ff3a000087eb0008003700ec
:101dd000080278003400fb0004047800afa89700e4
:101de00063030700e10f4000010032008d06e800a8
:101df000090278008404e900e00f5200f4ff3a0081
:101e0000e00f56004e03320007003700afa89700de
:101e10000002200056030700e10f400001003200dd
:101e20008d06e8000e07e900e00f5700f7ff3a00c3
:101e300043033700bfa8970041027800b1af9f006d
:101e400004007800cf80de00010178008201780074
:101e5000c0af9f00d1af9f00e2af9f00f3af9f00e4
:101e60004800de00480add0000007200a0779f00f5
:101e7000f002660009003200e04f50000700320017
:101e8000e14f400005003200b0779f008fda9700e5
:101e9000c5779f0029002000030037000fdb970063
:101ea000b6779f001900200038fb2f000f04440074
:101eb000aeff3700a5779f0028fb2f000f044400da
:101ec00019002000a9ff3700a5779f000c0cb30074
:101ed0000470200004026600ba01320004002100f0
:101ee00004026600020032006700200087b79f00ee
:101ef00070026600090032003faa97004401be004c
:101f00004400be00b4af9f00c0af9f00d1af9f00a0
:101f1000e2af9f00f3af9f000a003700bfaa97000f
:101f20004500be00b5af9f00f40407000002be00ec
:101f30000203be00c4af9f00d5af9f00e6af9f0075
:101f4000f7af9f006022b8006033b8004fa8970039
:101f5000dfa897006fa99700ffa997003904070031
:101f6000e00f50000a003d004fa89700dfa897003f
:101f70006fa99700ffa9970003f0a200c0af9f00d0
:101f8000d1af9f00e2af9f00f3af9f003c00b300d2
:101f90000002eb00b49f9f006022b8006033b800dd
:101fa0004fa89700dfa897006fa99700ffa9970097
:101fb00088040700e00f5000350032004fa897005a
:101fc000dfa897006fa99700ffa99700da0507001f
:101fd00062fb2f000f014100430507003f98970067
:101fe0000000e9006300b900a4002000110009000e
:101ff0000400d800b09f9f00e00f500002003d0099
:102000000000e900b09f9f003f9c97000840ea0055
:102010002cfe07004faa9700dfaa97006fab97002e
:10202000ffab97004d0507000002be000203be0093
:10203000d4a79f00e5a79f00f6a79f0087af9f004a
:102040006022b8000600200007ff2300fd03070000
:10205000e00f500002003d000804e9000b003700cb
:102060006022b80006002000470224005fa097000d
:10207000efa097007fa197008fa99700f6030700b4
:10208000e00f5000020035000804e800b89f9f00f0
:102090008fb29700f88f52000f003c000540780087
:1020a000abfd07000002be000203be004fa8970070
:1020b000dfa897006fa99700ffa9970064030700a6
:1020c0000002be000203be00c4af9f00d5af9f0058
:1020d000e6af9f00f7af9f003f9c9700e90f5400c9
:1020e00015003c006022b8006033b8004fa897008c
:1020f000dfa897006fa99700ffa997003504070094
:10210000e00f5000320032004fa89700dfa8970080
:102110006fa99700ffa9970097040700e00f5000f0
:10212000e08f5800e00f5900e08f590028003a0076
:10213000e10f5400260034000400200005002e00aa
:10214000b6e02200170124005fa09700efa09700df
:102150007fa197008fa99700ba030700e00f5000f6
:1021600002003d0073045400010037007204540063
:10217000b89f9f006f709700d2fd07000002be005d
:102180000203be00d4a79f00e5a79f00f6a79f000b
:1021900087af9f004fa89700dfa897006fa997000f
:1021a000ffa99700b1030700730407000205be00f2
:1021b0000004be006000b8006011b800c0af9f000e
:1021c000d1af9f00e2af9f00f3af9f001700370031
:1021d0004fa89700dfa897006fa99700ffa9970065
:1021e000650407000205be000004be00930407005a
:1021f0000002be000203be004fa89700dfa89700b0
:102200006fa99700ffa99700490507000002be00cb
:102210000203be00c4af9f00d5af9f00e6af9f0092
:10222000f7af9f000002eb00b49f9f00c19a20000f
:1022300010c0b300080037003102be003103be00f9
:102240000440e10005c8e10006d0e10007d8e10044
:10225000030039000040e800f44f5000f6ff3a0058
:10226000a0779f003f9a97009faa97000482520090
:102270000fb39700060252000000fb000007520057
:10228000e00f5300010032000e07e9006302660010
:10229000010032000e07e900640266001d003200f2
:1022a000e202660061026600e08f52000600320022
:1022b000b0022000e00f5200010032000080e80070
:1022c000afa8970004003700e00f52000e00320064
:1022d000afa897000002200025020700e10f400090
:1022e000090032008d06e80007003700afa897000c
:1022f000000320001e020700e10f40000100320031
:102300008d06e8000e07e900e00f5700f7ff3c00dc
:1023100030003700680266000a003a000700370004
:10232000afa897000002200011020700e10f400053
:10233000010032008d06e8000e07e900e00f5700ab
:10234000f7ff3c00e202660061026600e08f520087
:1023500006003200b0022000e00f520001003200ff
:102360000080e800afa8970016003700e00f520089
:1023700018003200afa897000002200011003700bb
:102380008502fb00c32add00479a200085824300b6
:102390005503be004502be000800be000a01be0093
:1023a000bb050700a4002000050020006033b80032
:1023b000be0507000403200000024200afa89700fa
:1023c00004007800ea010700e10f4000010032003c
:1023d0008d06e8002f7297008442e900a5779f00e0
:1023e000e04f5200e6ff3a0008003700afa8970020
:1023f00000032000de010700e10f40000100320071
:102400008d06e8000804e900b89f9f003f9c9700f4
:10241000e00f5400f5ff3c000fb09700f20f5000a2
:102420000300340024c1b300a4779f0002003700ea
:102430008fe09700a1779f002f7297008402fb0026
:102440000fb197008502510095af9f00e04f5200f9
:1024500006003200afa89700e0022000c401070088
:10246000e10f4000010032008d06e8002f70970058
:1024700014fd07000002be000203be004fa8970033
:10248000dfa897006fa99700ffa997003304070002
:10249000b9030700220037008502fb00c32add00d4
:1024a000439a2000858241003500be002501be0010
:1024b00080b79f0091b79f00a2b79f00b3b79f005e
:1024c0000203be000002be000800be000a01be00fa
:1024d0006f050700a4002000050020006033b8004d
:1024e000720507000403200000024200afa8970015
:1024f000040078009e010700e10f40000100320057
:102500008d06e8000fb297009fb297002fb3970097
:10251000bfb397000800be000a01be0063050700b4
:102520000205be000004be002f7297008442e9003d
:10253000a5779f00e04f5200d7ff3a000203be008c
:102540000002be009fac97000f003700afa89700b5
:1025500000032000c4b79f00d5b79f00e6b79f00d7
:10256000f7b79f00820107004fb29700dfb29700d4
:102570006fb39700ffb39700e10f400001003200f6
:102580008d06e8008904e900e08f5400efff3a006f
:10259000680666006a013200e00f570068013400e7
:1025a000afa897000002200071010700e10f400072
:1025b000010032008d06e8000e07e900f8ff3a003e
:1025c0005f0137008c027800050cb2002b003a0046
:1025d000e00f560005003d00bfa897004105be0072
:1025e0004104be00b1af9f001700370070026600c3
:1025f0000f0032003faa97004401be00b4af9f0015
:1026000082a79f0093a79f00840278001502900084
:102610004fa2de00a4a79f00b4a79f000fa49700bd
:102620009fa497002fa59700bfa59700060037002d
:10263000bfab970047047800b7af9f00cfc4de0060
:10264000090578008a057800e00f5400e08f5c00ef
:10265000e00f5d00e08f5d0023003d003c00b30013
:102660006022b8006033b8000804520089845a0020
:102670000a055b008b855b001b003700e00f5600ee
:1026800005003d003fa897004005be004004be0085
:10269000b0af9f0014003700f00266000c0032005b
:1026a000bfaa97004501be00b5af9f00c29f9f0023
:1026b000d39f9f00e49f9f00f49f9f004f9c970033
:1026c000df9c97006f9d9700ff9d970006003700e5
:1026d000bfab970047047800b7af9f000900200008
:1026e0000a0020000b0020000fb09700e00f500000
:1026f00009003a001100200081b79f00e00f54004c
:10270000e08f5c00e00f5d00e08f5d0002003200b2
:102710000001eb0082b79f008c017800030cb2002f
:10272000c3af9f0004042000848f51002c003200ae
:1027300003003c00e08f5100080032003c003700ed
:1027400004082000cfaa9700848f520010003200a6
:10275000040c2000848f520035003a00c59a2000f6
:1027600014c0b3003500be003501be000040e100da
:1027700001c8e10002d0e10003d8e1002b003900dc
:102780000442e800f44f5200f6ff3a0027003700f9
:1027900014c0b30000012000010020006011b80047
:1027a0000040e10001c8e10002d0e10003d8e100ef
:1027b0001e003900460020000000d0008180d200b9
:1027c0000281d2008381d2000603e900faff3a00b9
:1027d0000442e800f04f5200f1ff3a0013003700c6
:1027e00014c0b30080002000010020006011b80078
:1027f0000040e10001c8e10002d0e10003d8e1009f
:102800000a003900370020000000d0008180d2008b
:102810000281d2008381d2008703e900faff3a00e7
:102820000442e800f54f5200f1ff3a00a4779f0000
:102830002f7097000002fb008fb09700810f5200ad
:1028400002003d00a1779f00040037000fb1970000
:10285000840f510001003d0084b79f009fa997009d
:10286000e08f510004003200630266000200320073
:102870008301e90093af9f00040024000402660076
:10288000090032001faa97008fb29700850f5200ef
:10289000030034000502520094af9f00020037008d
:1028a0000003eb0096af9f00af7397000702fb0099
:1028b0000007eb001fa89700840f500001003400b0
:1028c00004075000640266001c003200e202660049
:1028d00061026600e08f520006003200b002200064
:1028e000e00f5200010032000080e800afa897001e
:1028f00004003700e00f520006003200afa8970036
:10290000000220009a000700e10f400001003200a1
:102910008d06e800e00f570075003200afa8970061
:102920000003200092000700e10f40000100320088
:102930008d06e8000e07e900f6ff3700e00f5700ac
:102940000a0032006802660008003a00afa897004b
:102950000002200086000700e10f40000100320065
:102960008d06e8000e07e900f8ff3a00e202660073
:1029700061026600e08f520006003200b0022000c3
:10298000e00f5200010032000080e800afa897007d
:1029900004003700e00f520055003200afa8970046
:1029a0000002200072000700e10f400050003200da
:1029b0008d06e8004e0037008fb097008100e900d7
:1029c00081b79f004fa9970003042000830f510097
:1029d0003000320003003c00e00f510008003200dc
:1029e0003b00370004082000cfaa9700848f5200d4
:1029f00014003200040c2000848f520034003a008e
:102a00000fb397004332dd00479a200007024200cf
:102a10005403be004402be000800be000a01be000e
:102a20001b040700a4002000050020006033b8004c
:102a30001e0407000cc3b3000c464000ac779f0097
:102a40002300370054a520001fa89700e00f500076
:102a50000100320044a420008fb09700c20add00bc
:102a60000800be000a01be008502e900050033002f
:102a70008301d1000281d3008180d3000080d30084
:102a8000f9ff37006f00600064407800a0779f0076
:102a90000f0037000fb197006312b9000800be00a5
:102aa0000a01be00040678000c06e90005003300a8
:102ab0008301d1000281d3008180d3000080d30044
:102ac000f9ff3700674260000443b000a4779f001d
:102ad000af7097000100fb00afa89700240007002b
:102ae000e10f4000060032008d06e80004003700c8
:102af0000c0178000202b20092af9f008cbf9f00d1
:102b00008fb19700e08f5100abff3a000fbe9700e6
:102b1000680666000a003200e00f57000800340023
:102b2000afa897000002200011000700e10f40004d
:102b3000010032008d06e8000e07e900f8ff3a00b8
:102b40004fa2970014407800a0779f00e04f5000fc
:102b5000ccfb3a000d0078004f0778004f06be000e
:102b60004f05be004f04be002f04b1000000060058
:102b7000889fbe000104780038029000e2026200e3
:102b80008084eb003b003200040378000620b20092
:102b90009802900002003a00e08f520035003a009f
:102ba0000490a0003404980080047800f90fb2006b
:102bb000e08f520002003a00a8029000050c780055
:102bc000ea8f540005003a000408b20003003a00fe
:102bd00088007800d0002000e5ff07001802900070
:102be000d8029000850f52000b0032000402e8006a
:102bf0001404980018027800094a7800040ce800d0
:102c000015c0b30044a92000054a7800ea8f54009b
:102c100018003a0005003700880078000940780065
:102c20001700070080047800120037003802900077
:102c30000410b2000f00320018019000a8009000ac
:102c4000480090005200070018029000840f5000c6
:102c500004003200380290000403b30034049800ea
:102c60008084eb000002eb0014049800280290001e
:102c7000040c7800090078004f04be000000060034
:102c80000200fa00889fbe00a0ff9f0001047800a8
:102c900038029000840278000504b200020032007d
:102ca0000000fb0035003700e202620005003a0038
:102cb0000403b30034049800150498000080eb006e
:102cc0002e003700d8049000e08f540006003a0030
:102cd00012002000e6805700480090002c000700fa
:102ce0001904980023003700a8029000e08f5200da
:102cf00008003a0075a9200025049800050c78000a
:102d00002500200055049800150498000430a00008
:102d10003404980018019000a8009000480090002a
:102d20001b000700280290008082eb001504980029
:102d3000affa9700054a7800040ce8002ffa9700d4
:102d4000ea4f52000b003a00380290000410b20023
:102d50000800320018019000a80090004800900080
:102d60000b0007000002eb0014049800a80290007a
:102d7000050c78002ffa97000400fb004f04be00fa
:102d80000080fa000000060000c0da000000060023
:102d90000a00fa00e20f500022003e00d4548000e6
:102da000e10f520006003200872320004623200056
:102db0002423200005232000e08f530004003a0064
:102dc0008722200046222000242220000522200005
:102dd000000028001500600003003a00800b780016
:102de00007002800958a7300054020009482620045
:102df00001003a0014a0a00082027800060037000b
:102e0000940378000710b200fdff3200b103fb000d
:102e1000070b78008502e900e08f5200f8ff3a00c6
:102e20000800370034002000b4bf9f00c0bf9f00df
:102e3000d1bf9f00e2bf9f006a805700d2ff07000a
:102e40006fb99700020078000080fa0000000600c9
:102e50002800fa00889fbe008a9fbe008c9fbe009b
:102e600007067800878669000c003b0003047800a1
:102e70008704780008f0a10009f0a100840f500039
:102e8000858f5800860f5900890f5c0003003300be
:102e90000cf0a20001003a000cf0a100fe000700b7
:102ea0006400e1005f003200780147006408e1003f
:102eb000610032006c014700748557003200be008b
:102ec0001201be003a04be001a05be001e039000a7
:102ed000be0a90008503530006003d000004fd007b
:102ee0008104fd000205fd008305fd008703ea0063
:102ef000050378000df8a3000400320060041400fc
:102f0000e0841c0060051d00e0851d006022b80003
:102f10007d0320000d38e1008006eb000b00390036
:102f20004433dd00f300b200830173003900370041
:102f3000848272000d027800e10664008b85d10066
:102f40000a85d3008984d3000884d3008703e9006d
:102f5000f7ff3b0008004000898048000a01490053
:102f60008b81490004003b0060001000e0801800e5
:102f700060011900e08119000358a3000900320024
:102f80008d82720084827200610260008301d10030
:102f90000281d3008180d3000080d3000603e800c3
:102fa0001b0037000348a30017003a000600e000aa
:102fb000170034000603e9000d00a30000004800dc
:102fc0008180480002014900838149000348a30031
:102fd0000f003a000600e000090034000603e90093
:102fe00000004000818048000201490083814900bf
:102ff00001003a000003eb000348a300f5ff320094
:103000006022b8000200370084827200618266008c
:103010007500070003f0a1000cf0a70003f0a0006a
:10302000b1003700640147006408e10002003a0083
:103030000df8a300a9003a003200be001201be0044
:10304000a90037008f1fd100fa0207008f87e9001f
:103050000000e00000000600809feb00f502070082
:103060008f87e9000000e000000006002800fa0059
:10307000889fbe008a9fbe008c9fbe0003866b00a7
:10308000850007006400e100440032006408e100ac
:103090004a0032006100e100460032006108e100b0
:1030a00049003200ec0647006000b8003d02be0057
:1030b0003d03be00f48657006011b8003d04be0019
:1030c0003d05be007d0320000b0037000000a0007e
:1030d0008d06e900130032000402420085824a0096
:1030e00006034b0087834b000000400081804800ae
:1030f00002014900838149000802520089825a0076
:103100000a035b008b835b00f0ff3b000802420078
:1031100089824a000a034b008b834b008d06e9002d
:10312000edff3a008482720086827200f707b200d7
:103130008782720001003200150020001e049000fa
:103140003e0b900006035400e63fb0000368a30066
:10315000070032000000a7000500a0008301d10095
:103160000281d3008180d3000080d3000603e800f1
:103170008301d1000281d3008180d3000080d3007d
:103180000002eb000482d2001700070003f0a10048
:103190000cf0a70003f0a0005300370064024700c2
:1031a0006408e1004d0032003400be003401be006e
:1031b000f6ff37006108e100480032006011b800f6
:1031c0006000b800f1ff370003ff27000200200075
:1031d000fbff3700801feb00960207008f87e90096
:1031e0000000e0000000060018002000570020004a
:1031f000080453000d003d000600200097fc2f003e
:103200000740e1001e003400848272006102600009
:103210008301d1000281d3008180d3000080d300dc
:103220000804e800f8ff3a0047002000610460004d
:1032300005047400040464000d00320061004000c5
:10324000e080480060014900e081490003b8a50022
:10325000070032000603e8006538e10004003a0088
:103260008301d1000281d3008180d3000080d3008c
:10327000f87f20000830e1000300350008037800e3
:103280006000b8006011b8004433dd00f300b20004
:103290008301730000000600680447000294be002a
:1032a0000094be00fc0447008694be008494be00d7
:1032b00009007800a802070008007800a6020700ad
:1032c00099007800814f70000b003b000800be00a1
:1032d000810207004f00b10003003700f3ff270011
:1032e000f2ff2f006110b9004f06be004f05be006f
:1032f0004f04be000080fa00000006008103780041
:1033000044f807000001be006000b8000478a30084
:1033100013003a006220e10015003e000d00390064
:103320008301d1000281d3008180d3008301d100c9
:103330000281d3008180d3008301d1000281d300b8
:103340008180d3000538b000c42add00f300b2004c
:103350008381720007f0a70003f0a00000000600c0
:10336000f3ff2700f2ff2f006110b900fbff3700c9
:1033700003ff2700f7ff37001400fa00889fbe0004
:103380008a9fbe008c9fbe000004be000205be00e6
:10339000680047000a90be000890be006e02070059
:1033a0000070a7000bf0a1000bf8a30020003a006a
:1033b0009e0990000e099000fe0090006e009000a3
:1033c0009e0290003443200084825200c6ff3200e7
:1033d0000a003c00b4fc2f000428e1001400340073
:1033e0008301d1000281d3008180d3000080d3000b
:1033f0008502e800faff3a00bbff3700b400200066
:103400000428e10007003c000000400081804800e3
:1034100002014900838149008502e900faff3a0070
:10342000b1ff370003002800020020000100370030
:103430006011b8006000b800abff3700889fbe0085
:1034400000827000040271000482710024003200c6
:1034500036432000c50020008383cf000a003900d6
:103460000541b1008283cf00070039000541b1005a
:103470008183cf00040039000541b1008083cf0073
:10348000010039000541b10085c353006022b80036
:10349000120032000a003b00848272006102600068
:1034a0008301d1000281d3008180d3000080d3004a
:1034b0000603e8008743e800f7ff3a0007003700fb
:1034c00000004000818048000201490083814900da
:1034d0000603e9008743e900f9ff3a0042ff0700cd
:1034e0004f04be00000006001400fa00889fbe00d2
:1034f0008a9fbe008c9fbe00040678000004be00b8
:103500000205be00680047000a90be000890be0099
:10351000110207006200e1000800be000a01be00bf
:10352000040020000b003a001e029000e43fb100ae
:103530006e009000fe0090000e0990009e09900021
:10354000f300b20005fe2300858171000bf0a70097
:1035500003f0a000040e780063ff37002800fa0093
:10356000889fbe008a9fbe008c9fbe0003866b00b2
:1035700049ff07000028a30064003a000128a300c7
:1035800067003a000008a30062003a000108a300a7
:1035900065003a001e009000be08900081064000c1
:1035a000ed3fb100f4805700ee019000111ab80011
:1035b0008e099000311bb8009e099000311cb800a4
:1035c000511db800f485570046000700fe01900029
:1035d0003a0007008b85e8003e0007008e09900046
:1035e00040000700ee019000340007008b85e800e2
:1035f000380007008e099000400007009e099000e7
:103600001b18b800890440000a854800fe0190009c
:10361000340007008b85e80038000700ee019000b9
:10362000300007008e0990001b18b8008904400084
:103630000a8548000a98a30008003a0004024200e4
:1036400085824a0006034b0087834b0008044c0028
:1036500089844c000a054d008d06e90084827200c1
:10366000850273004c3add008502720001003200d1
:1036700015002000443ade001400b2004538de0098
:10368000cb45dd000b007000c540de00cb4ddd00fa
:103690008b8070004549de00cb55dd000b017100c9
:1036a000c551de000d037800cffe070003f0a10036
:1036b0000cf0a70003f0a0000bff37001b18b800a8
:1036c0008502400006834800e0834b0060044c0004
:1036d000070037001b18b800060340008783480026
:1036e000faff37001b18b800870340000884480021
:1036f000e0844c0060054d00000006001b18b80077
:103700000804400089844800faff37000108a3003c
:10371000f2fe3a005800be005801be00e3ff370039
:103720000008a300edfe3a0009047800f9ff370015
:1037300007f0a200c6fd37001400fa00889fbe0003
:103740008a9fbe008c9fbe000005be000206be0020
:10375000680047000c90be000a90be007e01070082
:103760006400e1001a00320016003e006100e10032
:103770001a0032006e049000fe0490000e0b9000c0
:103780009e0b90006011b8009e0590000b38b100b0
:10379000d501200082817100610164008703d1009e
:1037a0000683d3008984d3000884d3008502e9000e
:1037b000f8ff3a00f1f607000df0a70001f0a000b5
:1037c000c9fe3700f1ff2700f0ff2f00c6fe3700cb
:1037d00001f8270000002000f7ff37006000b80064
:1037e000f5ff3700889fbe008a9fbe003004be00f0
:1037f0002005be000404440085844c0006054d00ed
:1038000087854d000898be000a90be000440e10084
:1038100005c8e10006d0e10007d8e1000200310050
:10382000680040001008e8004f05be004f04be00cd
:10383000000006001000fa00889fbe008a9fbe00ac
:103840000605be000404be003002be002003be0018
:10385000c4b79f00d5b79f00e6b79f00f7b79f009a
:103860000802520089825a000a035b008b835b00c6
:1038700084bf9f0095bf9f00a6bf9f00b7bf9f005a
:103880000498be000698be00110020004fb29700b9
:10389000dfb297006fb39700ffb397000820e100f5
:1038a00009a8e1000ab0e1000bb8e100010039000d
:1038b0008000eb00108810004f05be004f04be00d2
:1038c0000080fa00000006001400fa00889fbe0085
:1038d0008a9fbe008c9fbe003f0007000605be0009
:1038e0000404be000006eb00ccb79f00bcb79f00ed
:1038f000acb79f009cb79f008cb79f000d042000c1
:103900004fb39700bfb29700860343002fb29700d2
:10391000e00f530004003d003d0007000f00400091
:10392000b0ff070003003700390007000f00400018
:10393000c0ff0700cfb2970095bf9f00e08f5200f5
:10394000090035002b0007001400200005002000ae
:103950006033b800000072008180720002017300c1
:10396000838173001c0007000c06e8008d0f5600d1
:10397000e3ff3a001fba9700e00f520005003d0038
:103980000802be000a03be0000fe2f000f00400028
:1039900094ff07004faa9700e00f520008003a007a
:1039a0000fb497009fb497002fb59700bfb597004d
:1039b000d8b79f00e9b79f00fab79f008bbf9f0061
:1039c0000c0007004f06be004f05be004f04be00ae
:1039d0000080fa0000000600010007000000060059
:1039e00090b79f00a1b79f00b2b79f00c3b79f00d9
:1039f0000000060001000700000006001fb097004d
:103a0000afb097003fb19700cfb19700000006001c
:103a10004f2bde0087037300a7b79f004f23de0004
:103a2000858242008502730095b79f00ffaa970028
:103a30004f2bde00040242000402730084b79f0093
:103a40006faa97004f23de00858242008502730033
:103a5000f5af9f00e9ff07004f18de0004024200a7
:103a600000027200e4af9f00e4ff07000000400086
:103a7000818048000201490083814900d8ff070086
:103a80000802be000a03be0000fe2f000000060070
:103a9000881f780018002000881f78008aff070020
:103aa0008f87e9004f04780000000600801feb00bc
:103ab00085ff07008f87e90000000600889fbe0091
:103ac0008a9fbe00e00f5000e08f5800e00f5900c1
:103ad000e08f59000c003d006044b8006055b8000c
:103ae0000000540081805c0002015d0083815d0064
:103af000180020001500070008003d00180007000e
:103b00000004eb00050037000004eb000f00070085
:103b100002003d001200070018002000dcff070033
:103b2000e00f5400060032006022b8006033b80095
:103b30000000520081805a0002015b0083815b001b
:103b40004f05be004f04be0000000600e00f52000b
:103b5000e08f5a00e00f5b00e08f5b000000060082
:103b60006044b8006055b8000402540085825c00cf
:103b700006035d0087835d0000000600889fbe008d
:103b80008a9fbe008c1f7800e00f5000e08f580025
:103b9000e00f5900e08f59000d003d006044b8006f
:103ba0006055b8000000540081805c0002015d0097
:103bb00083815d001c0020000820e10009a8e100cd
:103bc0000ab0e1000bb8e1000d003d00080037002d
:103bd0000006eb00e00f5200e08f5a00e00f5b00a0
:103be000e08f5b0006003d006044b8006055b800ff
:103bf0000402540085825c0006035d0087835d003b
:103c0000aaff0700e00f5600060032006022b8004d
:103c10006033b8000000520081805a0002015b004e
:103c200083815b004f0678004f05be004f04be0045
:103c300000000600889fbe008a9fbe008c9fbe00c9
:103c40000404be000605be00809fbe00829fbe0029
:103c50002f000700040678000800be000a01be001d
:103c60002b000700840678004f03be004f02be0001
:103c70008d4f76007fb0970013003300f0ff2f00c8
:103c80008b8f6b0006003b000d0666000c00a70042
:103c90000a00370007f0a600100020000a003700d5
:103ca000880f5200898f5a008a0f5b008b8f5b0050
:103cb000030039001000200001003e000000200039
:103cc00007f0a7000000ea004f06be004f05be0047
:103cd0004f04be0000000600e48240001078a300fc
:103ce00007003200640240001178a3003400be00d7
:103cf0001401be00040032000330a70000000600db
:103d00003500be001501be000330a0000000060013
:103d100005ff270005826100070032000428e1004a
:103d200001003200240005000600070001003a00ef
:103d3000440005000408050002000700f9ff3a00ee
:103d4000140005006f82610081027000850271001d
:103d50008502720000000600800078005002be005c
:103d60005003be004439de00f700b200f37f2000ac
:103d700003016100090032000218e10016003a0058
:103d800085017200830173008381730000082000a5
:103d900015003a0040002000130037008501720032
:103da000830173008381730005003a0004a8be00fc
:103db00006a8be00100020000b0037000201e90039
:103dc0000402420085824a0006034b0087834b00b1
:103dd0000748a300f9ff32000740a00004a8be0076
:103de00006a8be00200020008000980092009800e5
:043df00000000600c9
:020000040000fa
:103df4005472000065610000646d0000696c00008d
:103e04006c200000253200002e31000066430000c3
:103e140000530000333d000053740000727400002e
:103e240020200000533600003d4800006973000064
:103e340074000000563d0000253200002e310000c1
:103e440066200000433d00002564000020000000bf
:103e5400443d0000253200002e31000066200000a1
:103e640048720000743d000025640000200000003a
:103e74004469000073740000616e00006365000013
:103e8400203d0000202500006420000020200000c8
:103e940000430000616c00006f720000696500005f
:103ea400732000003d200000256400002020000055
:103eb400004e00006f200000486900007374000089
:083ec4006f720000790000009c
:020000040000fa
:103ecc000008000042000000000000004208000052
:103edc0002000000020000003c800000440a0000c8
:103eec002a0000000200000030313200333435006b
:103efc003637380039414200434445004600300013
:103f0c0031323300343536003738390061626300a2
:103f1c006465660000286e00756c6c00290000005a
:103f2c00a4090000a0000000020000000100000035
:103f3c000000000000000a0000000000000000006b
:103f4c00006400000000000000000000e803000016
:103f5c00000000000000100027000000000000001e
:103f6c0000a08600010000000000000040420f008d
:103f7c000000000000008000969800000000000087
:103f8c000000e100f50500000000000000ca9a00e6
:103f9c003b00000000000000e40b54000200000095
:103fac000000e80076481700000000000010a50093
:103fbc00d4e8000000000000a0724e0018090000b8
:103fcc00000040007a10f3005a0000000080c60088
:103fdc00a47e8d000300000000c16f00f286230058
:103fec00000000008a5d7800456301000000640059
:103ffc00a7b3b600e00d000000e889000423c70059
:10400c008a0000004408000060010000020000006b
:10401c000000000000000000f03f00000000000065
:10402c000000240040000000000000000059400087
:10403c0000000000000040008f4000000000000065
:10404c000088c30040000000000000006af8400037
:10405c0000000000008084002e41000000000000e1
:10406c00d01263004100000000008400d79741008b
:10407c00000000000065cd00cd41000000002000d4
:10408c005fa002004200000000801d00af1544003c
:10409c000000000040593e002946000000000000ce
:1040ac000000f0007f0000000000000000f07f0026
:1040bc000000000000000000f07f00000000000085
:1040cc000000f0007f0000000000000000f07f0006
:1040dc000000000000000000f07f00000000000065
:1040ec000000f0007f0000000000000000f07f00e6
:1040fc000000000000000000f07f00000000000045
:10410c000000f0003f00000000a0990099b93f00aa
:10411c000000000040e17a00843f00000000e00055
:10412c004d6250003f00000000e0e200361a3f00f4
:10413c000000000080b5f800e43e00000000a00084
:10414c00f7c6b0003e00000000a0f200d77a3e0097
:10415c0000000000e08e7900453e00000000e00009
:10416c000b2e11003e00000000e0df007cdb3d0068
:10417c000000000000a19c00c73b000000000000f4
:10418c004c48b40039000000000020006ca137003e
:10419c000000000000000000000000000000000013
:1041ac000000000000000000000000000000000003
:1041bc0000000000000000000000000000000000f3
:1041cc0000000000000000000000000000000000e3
:1041dc0000000000000000000000000000000000d3
:1041ec000000000000000000940a0000060000001f
:1041fc00000000006e0a0000260000000200000013
:10420c00950a000000950a00090000000002000059
:10421c00970a000000970a000e020100000000003f
:10422c000000000000000000060202000000000078
:10423c006e0a00009a0a0000020000000200000052
:08424c00010000000000000069
:020000040000fa
:104254000000fa00d382a900d582a800241220000d
:104264001413880004002800041388000080fa0056
:10427400000006000200fa00000f78001e02780019
:1042840044138800000000000413800061026200ef
:10429400e00f5200fcff3200441380000400780059
:1042a4000080fa00000006000200fa00d582a9008e
:1042b40050002000efff07000000eb00edff0700b7
:1042c40000027800040f7800d582a8001e0278004e
:1042d400040078000080fa00000006000600fa00de
:1042e4002007980000000000efff0700000278009c
:1042f40063026200e00f5200fbff3a00d582a9007e
:1043040030002000dbff07002e02900048a2de00f0
:1043140004007800d7ff0700ae029000e40f2000ed
:104324000482620004007800d2ff07000000eb0062
:10433400d0ff070000027800040f78000000eb00b3
:10434400ccff07000002780014079800d582a8006b
:104354001e027800c822dd001e0290000482420082
:10436400040078000080fa00000006000000fa0053
:10437400d582a90060002000beff0700d582a800f6
:104384000080fa00000006000400fa00000f780024
:104394001107980000000000c3ff07000002780026
:1043a40063026200e00f5200fbff3a00efff0700d8
:1043b400d582a90020002000aeff07001e0278006d
:1043c40048a2de0004007800aaff0700e40f2000e2
:1043d4001e02620004007800a6ff07001e0290007f
:1043e40048a2de0004007800a2ff07009e029000ad
:1043f400f40f200004826200040078009dff07008f
:10440400d582a8000080fa00000006000000fa002f
:10441400f43b280004308800f43f20001430880066
:10442400140020006430880000d027000100200020
:1044340086f007000002eb0024308800840320008b
:104444004430880000032000010020007ff00700b2
:10445400c4002000443088000064200001002000d3
:104464007af0070014002000443088000064200023
:104474000100200075f0070064002000443088002b
:10448400006420000100200070f007000080fa00a2
:10449400000006000400fa00100798000000000065
:1044a400153080000400280004826200e00f5200ee
:1044b400fbff3a001e029000243088004430800044
:1044c400040f78000000000015308000040028006c
:1044d40004826200e00f5200fbff3a004430800087
:1044e40004427800044078000080fa0000000600ce
:1044f4000400fa00000f7800214798000000000033
:104504000000eb00e3ff070000427800e04f520098
:10451400fbff350000000000153080000400280077
:1045240004826200e00f5200fbff3a001e02780092
:10453400243088002e4290000402fb00443088009e
:104544000080fa00000006000200fa00000f780064
:10455400060037001e027800144278001e0fe8009f
:104564008440780010002000e1ff07001e0278005c
:1045740014427800e04f5200f6ff3a000080fa003f
:10458400000006000200fa00000f78001e02780006
:1045940064198800040e2000041988000002eb004e
:1045a400841988000002eb001419880024f021000b
:1045b4002419880021e3a8000080fa000000060006
:1045c4000200fa00000f78001e02780044198800e7
:1045d4002023a8000000000004198000610262008a
:1045e400e00f5200fcff3200041880000400780041
:0845f4000080fa00000006003f
:020000040000fa
:020000040002f8
:04aff8001ff900003d
:020000040000fa
:020000040002f8
:04affc007f3f000093
:00000001FF
